{
  "_format": "hh3-artifact-1",
  "contractName": "Counter",
  "sourceName": "contracts/Counter.sol",
  "abi": [
    {
      "inputs": [
        {
          "internalType": "address",
          "name": "initialOwner",
          "type": "address"
        }
      ],
      "stateMutability": "nonpayable",
      "type": "constructor"
    },
    {
      "inputs": [
        {
          "internalType": "address",
          "name": "owner",
          "type": "address"
        }
      ],
      "name": "OwnableInvalidOwner",
      "type": "error"
    },
    {
      "inputs": [
        {
          "internalType": "address",
          "name": "account",
          "type": "address"
        }
      ],
      "name": "OwnableUnauthorizedAccount",
      "type": "error"
    },
    {
      "anonymous": false,
      "inputs": [
        {
          "indexed": false,
          "internalType": "uint256",
          "name": "by",
          "type": "uint256"
        }
      ],
      "name": "Decrement",
      "type": "event"
    },
    {
      "anonymous": false,
      "inputs": [
        {
          "indexed": false,
          "internalType": "uint256",
          "name": "by",
          "type": "uint256"
        }
      ],
      "name": "Increment",
      "type": "event"
    },
    {
      "anonymous": false,
      "inputs": [
        {
          "indexed": true,
          "internalType": "address",
          "name": "previousOwner",
          "type": "address"
        },
        {
          "indexed": true,
          "internalType": "address",
          "name": "newOwner",
          "type": "address"
        }
      ],
      "name": "OwnershipTransferred",
      "type": "event"
    },
    {
      "anonymous": false,
      "inputs": [],
      "name": "Reset",
      "type": "event"
    },
    {
      "inputs": [],
      "name": "decrement",
      "outputs": [],
      "stateMutability": "nonpayable",
      "type": "function"
    },
    {
      "inputs": [],
      "name": "getCount",
      "outputs": [
        {
          "internalType": "uint256",
          "name": "",
          "type": "uint256"
        }
      ],
      "stateMutability": "view",
      "type": "function"
    },
    {
      "inputs": [],
      "name": "inc",
      "outputs": [],
      "stateMutability": "nonpayable",
      "type": "function"
    },
    {
      "inputs": [
        {
          "internalType": "uint256",
          "name": "by",
          "type": "uint256"
        }
      ],
      "name": "incBy",
      "outputs": [],
      "stateMutability": "nonpayable",
      "type": "function"
    },
    {
      "inputs": [],
      "name": "owner",
      "outputs": [
        {
          "internalType": "address",
          "name": "",
          "type": "address"
        }
      ],
      "stateMutability": "view",
      "type": "function"
    },
    {
      "inputs": [],
      "name": "renounceOwnership",
      "outputs": [],
      "stateMutability": "nonpayable",
      "type": "function"
    },
    {
      "inputs": [],
      "name": "reset",
      "outputs": [],
      "stateMutability": "nonpayable",
      "type": "function"
    },
    {
      "inputs": [
        {
          "internalType": "address",
          "name": "newOwner",
          "type": "address"
        }
      ],
      "name": "transferOwnership",
      "outputs": [],
      "stateMutability": "nonpayable",
      "type": "function"
    }
  ],
  "bytecode": "0x6080604052348015600e575f5ffd5b50604051610544380380610544833981016040819052602b9160b4565b806001600160a01b038116605857604051631e4fbdf760e01b81525f600482015260240160405180910390fd5b605f816065565b505060df565b5f80546001600160a01b038381166001600160a01b0319831681178455604051919092169283917f8be0079c531659141344cd1fd0a4f28419497f9722a3daafe3b4186f6b6457e09190a35050565b5f6020828403121560c3575f5ffd5b81516001600160a01b038116811460d8575f5ffd5b9392505050565b610458806100ec5f395ff3fe608060405234801561000f575f5ffd5b5060043610610085575f3560e01c80638da5cb5b116100585780638da5cb5b146100b6578063a87d942c146100d5578063d826f88f146100e6578063f2fde38b146100ee575f5ffd5b80632baeceb714610089578063371303c01461009357806370119d061461009b578063715018a6146100ae575b5f5ffd5b610091610101565b005b6100916101a2565b6100916100a9366004610384565b6101e7565b610091610282565b5f546040516001600160a01b0390911681526020015b60405180910390f35b6001546040519081526020016100cc565b610091610295565b6100916100fc36600461039b565b6102cc565b5f600154116101575760405162461bcd60e51b815260206004820152601760248201527f436f756e74657220697320616c7265616479207a65726f00000000000000000060448201526064015b60405180910390fd5b60018054905f610166836103dc565b9091555050604051600181527f32814a5bdfd1b8c3d76c49c54e043d6e8aa93d197a09e16599b567135503f748906020015b60405180910390a1565b60018054905f6101b1836103f1565b9091555050604051600181527f51af157c2eee40f68107a47a49c32fbbeb0a3c9e5cd37aa56e88e6be92368a8190602001610198565b5f81116102365760405162461bcd60e51b815260206004820152601c60248201527f496e6372656d656e742073686f756c6420626520706f73697469766500000000604482015260640161014e565b8060015f8282546102479190610409565b90915550506040518181527f51af157c2eee40f68107a47a49c32fbbeb0a3c9e5cd37aa56e88e6be92368a819060200160405180910390a150565b61028a610309565b6102935f610335565b565b61029d610309565b5f60018190556040517f6423db340205c829eeb91151b1c5d1dc6d7a2b8708b1621494e89ba90c87081e9190a1565b6102d4610309565b6001600160a01b0381166102fd57604051631e4fbdf760e01b81525f600482015260240161014e565b61030681610335565b50565b5f546001600160a01b031633146102935760405163118cdaa760e01b815233600482015260240161014e565b5f80546001600160a01b038381166001600160a01b0319831681178455604051919092169283917f8be0079c531659141344cd1fd0a4f28419497f9722a3daafe3b4186f6b6457e09190a35050565b5f60208284031215610394575f5ffd5b5035919050565b5f602082840312156103ab575f5ffd5b81356001600160a01b03811681146103c1575f5ffd5b9392505050565b634e487b7160e01b5f52601160045260245ffd5b5f816103ea576103ea6103c8565b505f190190565b5f60018201610402576104026103c8565b5060010190565b8082018082111561041c5761041c6103c8565b9291505056fea2646970667358221220fb6f12ada9b2d6ff291463c00f421204bf646ff5cbb3c42ea9bb4dfd9627e1d364736f6c634300081c0033",
  "linkReferences": {},
  "deployedLinkReferences": {},
  "immutableReferences": {},
  "inputSourceName": "project/contracts/Counter.sol",
  "buildInfoId": "solc-0_8_28-647e913c4120874f7b29981ecc73a06302559dcb"
}