{
  "_format": "hh3-artifact-1",
  "contractName": "Voting",
  "sourceName": "contracts/Voting.sol",
  "abi": [
    {
      "inputs": [
        {
          "internalType": "address",
          "name": "initialOwner",
          "type": "address"
        }
      ],
      "stateMutability": "nonpayable",
      "type": "constructor"
    },
    {
      "inputs": [
        {
          "internalType": "address",
          "name": "owner",
          "type": "address"
        }
      ],
      "name": "OwnableInvalidOwner",
      "type": "error"
    },
    {
      "inputs": [
        {
          "internalType": "address",
          "name": "account",
          "type": "address"
        }
      ],
      "name": "OwnableUnauthorizedAccount",
      "type": "error"
    },
    {
      "anonymous": false,
      "inputs": [
        {
          "indexed": false,
          "internalType": "uint256",
          "name": "candidateId",
          "type": "uint256"
        },
        {
          "indexed": false,
          "internalType": "string",
          "name": "name",
          "type": "string"
        }
      ],
      "name": "CandidateAdded",
      "type": "event"
    },
    {
      "anonymous": false,
      "inputs": [],
      "name": "ElectionEnded",
      "type": "event"
    },
    {
      "anonymous": false,
      "inputs": [],
      "name": "ElectionStarted",
      "type": "event"
    },
    {
      "anonymous": false,
      "inputs": [
        {
          "indexed": true,
          "internalType": "address",
          "name": "previousOwner",
          "type": "address"
        },
        {
          "indexed": true,
          "internalType": "address",
          "name": "newOwner",
          "type": "address"
        }
      ],
      "name": "OwnershipTransferred",
      "type": "event"
    },
    {
      "anonymous": false,
      "inputs": [
        {
          "indexed": false,
          "internalType": "address",
          "name": "voter",
          "type": "address"
        },
        {
          "indexed": false,
          "internalType": "uint256",
          "name": "candidateId",
          "type": "uint256"
        }
      ],
      "name": "VoteCast",
      "type": "event"
    },
    {
      "inputs": [
        {
          "internalType": "string",
          "name": "name",
          "type": "string"
        }
      ],
      "name": "addCandidate",
      "outputs": [],
      "stateMutability": "nonpayable",
      "type": "function"
    },
    {
      "inputs": [
        {
          "internalType": "uint256",
          "name": "",
          "type": "uint256"
        }
      ],
      "name": "candidates",
      "outputs": [
        {
          "internalType": "uint256",
          "name": "id",
          "type": "uint256"
        },
        {
          "internalType": "string",
          "name": "name",
          "type": "string"
        },
        {
          "internalType": "uint256",
          "name": "voteCount",
          "type": "uint256"
        }
      ],
      "stateMutability": "view",
      "type": "function"
    },
    {
      "inputs": [],
      "name": "electionActive",
      "outputs": [
        {
          "internalType": "bool",
          "name": "",
          "type": "bool"
        }
      ],
      "stateMutability": "view",
      "type": "function"
    },
    {
      "inputs": [],
      "name": "endElection",
      "outputs": [],
      "stateMutability": "nonpayable",
      "type": "function"
    },
    {
      "inputs": [
        {
          "internalType": "uint256",
          "name": "candidateId",
          "type": "uint256"
        }
      ],
      "name": "getCandidate",
      "outputs": [
        {
          "internalType": "uint256",
          "name": "",
          "type": "uint256"
        },
        {
          "internalType": "string",
          "name": "",
          "type": "string"
        },
        {
          "internalType": "uint256",
          "name": "",
          "type": "uint256"
        }
      ],
      "stateMutability": "view",
      "type": "function"
    },
    {
      "inputs": [],
      "name": "getCandidateCount",
      "outputs": [
        {
          "internalType": "uint256",
          "name": "",
          "type": "uint256"
        }
      ],
      "stateMutability": "view",
      "type": "function"
    },
    {
      "inputs": [],
      "name": "getWinner",
      "outputs": [
        {
          "internalType": "uint256",
          "name": "",
          "type": "uint256"
        },
        {
          "internalType": "string",
          "name": "",
          "type": "string"
        },
        {
          "internalType": "uint256",
          "name": "",
          "type": "uint256"
        }
      ],
      "stateMutability": "view",
      "type": "function"
    },
    {
      "inputs": [
        {
          "internalType": "address",
          "name": "",
          "type": "address"
        }
      ],
      "name": "hasVoted",
      "outputs": [
        {
          "internalType": "bool",
          "name": "",
          "type": "bool"
        }
      ],
      "stateMutability": "view",
      "type": "function"
    },
    {
      "inputs": [],
      "name": "owner",
      "outputs": [
        {
          "internalType": "address",
          "name": "",
          "type": "address"
        }
      ],
      "stateMutability": "view",
      "type": "function"
    },
    {
      "inputs": [],
      "name": "renounceOwnership",
      "outputs": [],
      "stateMutability": "nonpayable",
      "type": "function"
    },
    {
      "inputs": [],
      "name": "startElection",
      "outputs": [],
      "stateMutability": "nonpayable",
      "type": "function"
    },
    {
      "inputs": [
        {
          "internalType": "address",
          "name": "newOwner",
          "type": "address"
        }
      ],
      "name": "transferOwnership",
      "outputs": [],
      "stateMutability": "nonpayable",
      "type": "function"
    },
    {
      "inputs": [
        {
          "internalType": "uint256",
          "name": "candidateId",
          "type": "uint256"
        }
      ],
      "name": "vote",
      "outputs": [],
      "stateMutability": "nonpayable",
      "type": "function"
    }
  ],
  "bytecode": "0x6080604052348015600e575f5ffd5b50604051610c07380380610c07833981016040819052602b9160b4565b806001600160a01b038116605857604051631e4fbdf760e01b81525f600482015260240160405180910390fd5b605f816065565b505060df565b5f80546001600160a01b038381166001600160a01b0319831681178455604051919092169283917f8be0079c531659141344cd1fd0a4f28419497f9722a3daafe3b4186f6b6457e09190a35050565b5f6020828403121560c3575f5ffd5b81516001600160a01b038116811460d8575f5ffd5b9392505050565b610b1b806100ec5f395ff3fe608060405234801561000f575f5ffd5b50600436106100cb575f3560e01c806359f78468116100885780637ed628bb116100635780637ed628bb1461018c5780638da5cb5b146101995780638e7ea5b2146101b3578063f2fde38b146101bb575f5ffd5b806359f784681461017457806362d73eb81461017c578063715018a614610184575f5ffd5b80630121b93f146100cf57806309eef43e146100e457806330a563471461011b5780633477ee2e1461012c57806335b8e8201461014e578063462e91ec14610161575b5f5ffd5b6100e26100dd3660046107cc565b6101ce565b005b6101066100f23660046107e3565b60026020525f908152604090205460ff1681565b60405190151581526020015b60405180910390f35b600154604051908152602001610112565b61013f61013a3660046107cc565b61033f565b6040516101129392919061083e565b61013f61015c3660046107cc565b6103f9565b6100e261016f36600461087a565b6104e6565b6100e26105c3565b6100e26105ff565b6100e261063e565b6003546101069060ff1681565b5f546040516001600160a01b039091168152602001610112565b61013f610651565b6100e26101c93660046107e3565b610714565b60035460ff1661021e5760405162461bcd60e51b8152602060048201526016602482015275456c656374696f6e206973206e6f742061637469766560501b60448201526064015b60405180910390fd5b335f9081526002602052604090205460ff161561026d5760405162461bcd60e51b815260206004820152600d60248201526c105b1c9958591e481d9bdd1959609a1b6044820152606401610215565b60015481106102b25760405162461bcd60e51b8152602060048201526011602482015270496e76616c69642063616e64696461746560781b6044820152606401610215565b335f908152600260205260409020805460ff191660019081179091558054829081106102e0576102e061092d565b5f918252602082206002600390920201018054916102fd83610955565b909155505060408051338152602081018390527fa36cc2bebb74db33e9f88110a07ef56e1b31b24b4c4f51b54b1664266e29f45b91015b60405180910390a150565b6001818154811061034e575f80fd5b5f91825260209091206003909102018054600182018054919350906103729061096d565b80601f016020809104026020016040519081016040528092919081815260200182805461039e9061096d565b80156103e95780601f106103c0576101008083540402835291602001916103e9565b820191905f5260205f20905b8154815290600101906020018083116103cc57829003601f168201915b5050505050908060020154905083565b5f60605f5f600185815481106104115761041161092d565b905f5260205f2090600302016040518060600160405290815f82015481526020016001820180546104419061096d565b80601f016020809104026020016040519081016040528092919081815260200182805461046d9061096d565b80156104b85780601f1061048f576101008083540402835291602001916104b8565b820191905f5260205f20905b81548152906001019060200180831161049b57829003601f168201915b5050509183525050600291909101546020918201528151908201516040909201519097919650945092505050565b6104ee610751565b6040805160608101825260018054808352602083018581525f948401859052818301835591909352815160039093027fb10e2d527612073b26eecdfd717e6a320cf44b4afac2b0732d9fcbe2b7fa0cf6810193845590519192917fb10e2d527612073b26eecdfd717e6a320cf44b4afac2b0732d9fcbe2b7fa0cf79091019061057790826109f1565b5060409190910151600290910155600180547fe83b2a43e7e82d975c8a0a6d2f045153c869e111136a34d1889ab7b598e396a3916105b491610aac565b82604051610334929190610ac5565b6105cb610751565b6003805460ff191690556040517f66ec723071e4bb646f7b35d31bc2dee8510979bd8c180edd0690d4f5e802f1e4905f90a1565b610607610751565b6003805460ff191660011790556040517fc475c26aa25ed8e85a7faa790e5f63b5d7ee1025f12821f4c9bfddd36ab4d112905f90a1565b610646610751565b61064f5f61077d565b565b5f60605f5f600180549050116106995760405162461bcd60e51b815260206004820152600d60248201526c4e6f2063616e6469646174657360981b6044820152606401610215565b5f60015b6001548110156106ff57600182815481106106ba576106ba61092d565b905f5260205f20906003020160020154600182815481106106dd576106dd61092d565b905f5260205f2090600302016002015411156106f7578091505b60010161069d565b505f600182815481106104115761041161092d565b61071c610751565b6001600160a01b03811661074557604051631e4fbdf760e01b81525f6004820152602401610215565b61074e8161077d565b50565b5f546001600160a01b0316331461064f5760405163118cdaa760e01b8152336004820152602401610215565b5f80546001600160a01b038381166001600160a01b0319831681178455604051919092169283917f8be0079c531659141344cd1fd0a4f28419497f9722a3daafe3b4186f6b6457e09190a35050565b5f602082840312156107dc575f5ffd5b5035919050565b5f602082840312156107f3575f5ffd5b81356001600160a01b0381168114610809575f5ffd5b9392505050565b5f81518084528060208401602086015e5f602082860101526020601f19601f83011685010191505092915050565b838152606060208201525f6108566060830185610810565b9050826040830152949350505050565b634e487b7160e01b5f52604160045260245ffd5b5f6020828403121561088a575f5ffd5b813567ffffffffffffffff8111156108a0575f5ffd5b8201601f810184136108b0575f5ffd5b803567ffffffffffffffff8111156108ca576108ca610866565b604051601f8201601f19908116603f0116810167ffffffffffffffff811182821017156108f9576108f9610866565b604052818152828201602001861015610910575f5ffd5b816020840160208301375f91810160200191909152949350505050565b634e487b7160e01b5f52603260045260245ffd5b634e487b7160e01b5f52601160045260245ffd5b5f6001820161096657610966610941565b5060010190565b600181811c9082168061098157607f821691505b60208210810361099f57634e487b7160e01b5f52602260045260245ffd5b50919050565b601f8211156109ec57805f5260205f20601f840160051c810160208510156109ca5750805b601f840160051c820191505b818110156109e9575f81556001016109d6565b50505b505050565b815167ffffffffffffffff811115610a0b57610a0b610866565b610a1f81610a19845461096d565b846109a5565b6020601f821160018114610a51575f8315610a3a5750848201515b5f19600385901b1c1916600184901b1784556109e9565b5f84815260208120601f198516915b82811015610a805787850151825560209485019460019092019101610a60565b5084821015610a9d57868401515f19600387901b60f8161c191681555b50505050600190811b01905550565b81810381811115610abf57610abf610941565b92915050565b828152604060208201525f610add6040830184610810565b94935050505056fea264697066735822122066d03f403772b3d82ecf5f140473a87ed774a34e9a38bec94c7f9fe31a985e3c64736f6c634300081c0033",
  "linkReferences": {},
  "deployedLinkReferences": {},
  "immutableReferences": {},
  "inputSourceName": "project/contracts/Voting.sol",
  "buildInfoId": "solc-0_8_28-2fdcf68100b96534c4788f351253f18910f7c00b"
}